{
	"PET/AccessControl .sol": {
		"AccessControl": {
			"abi": [
				{
					"inputs": [],
					"stateMutability": "nonpayable",
					"type": "constructor"
				},
				{
					"inputs": [
						{
							"internalType": "bytes32",
							"name": "_role",
							"type": "bytes32"
						}
					],
					"name": "OnlyRole",
					"type": "error"
				},
				{
					"anonymous": false,
					"inputs": [
						{
							"indexed": true,
							"internalType": "bytes32",
							"name": "role",
							"type": "bytes32"
						},
						{
							"indexed": true,
							"internalType": "address",
							"name": "account",
							"type": "address"
						}
					],
					"name": "GrantRole",
					"type": "event"
				},
				{
					"anonymous": false,
					"inputs": [
						{
							"indexed": true,
							"internalType": "bytes32",
							"name": "role",
							"type": "bytes32"
						},
						{
							"indexed": true,
							"internalType": "address",
							"name": "account",
							"type": "address"
						}
					],
					"name": "RevokeRole",
					"type": "event"
				},
				{
					"inputs": [],
					"name": "ADMIN",
					"outputs": [
						{
							"internalType": "bytes32",
							"name": "",
							"type": "bytes32"
						}
					],
					"stateMutability": "view",
					"type": "function"
				},
				{
					"inputs": [],
					"name": "USER",
					"outputs": [
						{
							"internalType": "bytes32",
							"name": "",
							"type": "bytes32"
						}
					],
					"stateMutability": "view",
					"type": "function"
				},
				{
					"inputs": [
						{
							"internalType": "bytes32",
							"name": "_role",
							"type": "bytes32"
						},
						{
							"internalType": "address",
							"name": "_account",
							"type": "address"
						}
					],
					"name": "grantRole",
					"outputs": [],
					"stateMutability": "nonpayable",
					"type": "function"
				},
				{
					"inputs": [
						{
							"internalType": "bytes32",
							"name": "_role",
							"type": "bytes32"
						},
						{
							"internalType": "address",
							"name": "_account",
							"type": "address"
						}
					],
					"name": "revokeRole",
					"outputs": [],
					"stateMutability": "nonpayable",
					"type": "function"
				},
				{
					"inputs": [
						{
							"internalType": "bytes32",
							"name": "",
							"type": "bytes32"
						},
						{
							"internalType": "address",
							"name": "",
							"type": "address"
						}
					],
					"name": "roles",
					"outputs": [
						{
							"internalType": "bool",
							"name": "",
							"type": "bool"
						}
					],
					"stateMutability": "view",
					"type": "function"
				}
			],
			"devdoc": {
				"kind": "dev",
				"methods": {},
				"version": 1
			},
			"evm": {
				"assembly": "    /* \"PET/AccessControl .sol\":61:1397  contract AccessControl {... */\n  mstore(0x40, 0x80)\n    /* \"PET/AccessControl .sol\":737:799  constructor() {... */\n  callvalue\n  dup1\n  iszero\n  tag_1\n  jumpi\n  0x00\n  dup1\n  revert\ntag_1:\n  pop\n    /* \"PET/AccessControl .sol\":762:791  _grantRole(ADMIN, msg.sender) */\n  tag_4\n    /* \"PET/AccessControl .sol\":429:454  abi.encodePacked(\"ADMIN\") */\n  add(0x20, mload(0x40))\n  tag_5\n  swap1\n  tag_6\n  jump\t// in\ntag_5:\n  mload(0x40)\n  0x20\n  dup2\n  dup4\n  sub\n  sub\n  dup2\n  mstore\n  swap1\n  0x40\n  mstore\n    /* \"PET/AccessControl .sol\":419:455  keccak256(abi.encodePacked(\"ADMIN\")) */\n  dup1\n  mload\n  swap1\n  0x20\n  add\n  keccak256\n    /* \"PET/AccessControl .sol\":780:790  msg.sender */\n  caller\n    /* \"PET/AccessControl .sol\":762:772  _grantRole */\n  shl(0x20, tag_7)\n    /* \"PET/AccessControl .sol\":762:791  _grantRole(ADMIN, msg.sender) */\n  0x20\n  shr\n  jump\t// in\ntag_4:\n    /* \"PET/AccessControl .sol\":61:1397  contract AccessControl {... */\n  jump(tag_8)\n    /* \"PET/AccessControl .sol\":940:1092  function _grantRole(bytes32 _role, address _account) internal {... */\ntag_7:\n    /* \"PET/AccessControl .sol\":1038:1042  true */\n  0x01\n    /* \"PET/AccessControl .sol\":1013:1018  roles */\n  0x00\n    /* \"PET/AccessControl .sol\":1013:1025  roles[_role] */\n  dup1\n    /* \"PET/AccessControl .sol\":1019:1024  _role */\n  dup5\n    /* \"PET/AccessControl .sol\":1013:1025  roles[_role] */\n  dup2\n  mstore\n  0x20\n  add\n  swap1\n  dup2\n  mstore\n  0x20\n  add\n  0x00\n  keccak256\n    /* \"PET/AccessControl .sol\":1013:1035  roles[_role][_account] */\n  0x00\n    /* \"PET/AccessControl .sol\":1026:1034  _account */\n  dup4\n    /* \"PET/AccessControl .sol\":1013:1035  roles[_role][_account] */\n  0xffffffffffffffffffffffffffffffffffffffff\n  and\n  0xffffffffffffffffffffffffffffffffffffffff\n  and\n  dup2\n  mstore\n  0x20\n  add\n  swap1\n  dup2\n  mstore\n  0x20\n  add\n  0x00\n  keccak256\n  0x00\n    /* \"PET/AccessControl .sol\":1013:1042  roles[_role][_account] = true */\n  0x0100\n  exp\n  dup2\n  sload\n  dup2\n  0xff\n  mul\n  not\n  and\n  swap1\n  dup4\n  iszero\n  iszero\n  mul\n  or\n  swap1\n  sstore\n  pop\n    /* \"PET/AccessControl .sol\":1075:1083  _account */\n  dup1\n    /* \"PET/AccessControl .sol\":1058:1084  GrantRole(_role, _account) */\n  0xffffffffffffffffffffffffffffffffffffffff\n  and\n    /* \"PET/AccessControl .sol\":1068:1073  _role */\n  dup3\n    /* \"PET/AccessControl .sol\":1058:1084  GrantRole(_role, _account) */\n  0x5a06360d65acf95e98445dc834f205063424c636e65418d928cdfabc33a95399\n  mload(0x40)\n  mload(0x40)\n  dup1\n  swap2\n  sub\n  swap1\n  log3\n    /* \"PET/AccessControl .sol\":940:1092  function _grantRole(bytes32 _role, address _account) internal {... */\n  pop\n  pop\n  jump\t// out\n    /* \"#utility.yul\":7:155   */\ntag_10:\n    /* \"#utility.yul\":109:120   */\n  0x00\n    /* \"#utility.yul\":146:149   */\n  dup2\n    /* \"#utility.yul\":131:149   */\n  swap1\n  pop\n    /* \"#utility.yul\":7:155   */\n  swap3\n  swap2\n  pop\n  pop\n  jump\t// out\n    /* \"#utility.yul\":161:316   */\ntag_11:\n    /* \"#utility.yul\":301:308   */\n  0x41444d494e000000000000000000000000000000000000000000000000000000\n    /* \"#utility.yul\":297:298   */\n  0x00\n    /* \"#utility.yul\":289:295   */\n  dup3\n    /* \"#utility.yul\":285:299   */\n  add\n    /* \"#utility.yul\":278:309   */\n  mstore\n    /* \"#utility.yul\":161:316   */\n  pop\n  jump\t// out\n    /* \"#utility.yul\":322:722   */\ntag_12:\n    /* \"#utility.yul\":482:485   */\n  0x00\n    /* \"#utility.yul\":503:587   */\n  tag_17\n    /* \"#utility.yul\":585:586   */\n  0x05\n    /* \"#utility.yul\":580:583   */\n  dup4\n    /* \"#utility.yul\":503:587   */\n  tag_10\n  jump\t// in\ntag_17:\n    /* \"#utility.yul\":496:587   */\n  swap2\n  pop\n    /* \"#utility.yul\":596:689   */\n  tag_18\n    /* \"#utility.yul\":685:688   */\n  dup3\n    /* \"#utility.yul\":596:689   */\n  tag_11\n  jump\t// in\ntag_18:\n    /* \"#utility.yul\":714:715   */\n  0x05\n    /* \"#utility.yul\":709:712   */\n  dup3\n    /* \"#utility.yul\":705:716   */\n  add\n    /* \"#utility.yul\":698:716   */\n  swap1\n  pop\n    /* \"#utility.yul\":322:722   */\n  swap2\n  swap1\n  pop\n  jump\t// out\n    /* \"#utility.yul\":728:1109   */\ntag_6:\n    /* \"#utility.yul\":913:916   */\n  0x00\n    /* \"#utility.yul\":935:1083   */\n  tag_20\n    /* \"#utility.yul\":1079:1082   */\n  dup3\n    /* \"#utility.yul\":935:1083   */\n  tag_12\n  jump\t// in\ntag_20:\n    /* \"#utility.yul\":928:1083   */\n  swap2\n  pop\n    /* \"#utility.yul\":1100:1103   */\n  dup2\n    /* \"#utility.yul\":1093:1103   */\n  swap1\n  pop\n    /* \"#utility.yul\":728:1109   */\n  swap2\n  swap1\n  pop\n  jump\t// out\n    /* \"PET/AccessControl .sol\":61:1397  contract AccessControl {... */\ntag_8:\n  dataSize(sub_0)\n  dup1\n  dataOffset(sub_0)\n  0x00\n  codecopy\n  0x00\n  return\nstop\n\nsub_0: assembly {\n        /* \"PET/AccessControl .sol\":61:1397  contract AccessControl {... */\n      mstore(0x40, 0x80)\n      callvalue\n      dup1\n      iszero\n      tag_1\n      jumpi\n      0x00\n      dup1\n      revert\n    tag_1:\n      pop\n      jumpi(tag_2, lt(calldatasize, 0x04))\n      shr(0xe0, calldataload(0x00))\n      dup1\n      0x2a0acc6a\n      eq\n      tag_3\n      jumpi\n      dup1\n      0x2f2ff15d\n      eq\n      tag_4\n      jumpi\n      dup1\n      0x81e167cf\n      eq\n      tag_5\n      jumpi\n      dup1\n      0xd547741f\n      eq\n      tag_6\n      jumpi\n      dup1\n      0xf8fc08b9\n      eq\n      tag_7\n      jumpi\n    tag_2:\n      0x00\n      dup1\n      revert\n        /* \"PET/AccessControl .sol\":387:455  bytes32 public constant ADMIN = keccak256(abi.encodePacked(\"ADMIN\")) */\n    tag_3:\n      tag_8\n      tag_9\n      jump\t// in\n    tag_8:\n      mload(0x40)\n      tag_10\n      swap2\n      swap1\n      tag_11\n      jump\t// in\n    tag_10:\n      mload(0x40)\n      dup1\n      swap2\n      sub\n      swap1\n      return\n        /* \"PET/AccessControl .sol\":809:932  function grantRole(bytes32 _role, address _account) external onlyRole(ADMIN)  {... */\n    tag_4:\n      tag_12\n      0x04\n      dup1\n      calldatasize\n      sub\n      dup2\n      add\n      swap1\n      tag_13\n      swap2\n      swap1\n      tag_14\n      jump\t// in\n    tag_13:\n      tag_15\n      jump\t// in\n    tag_12:\n      stop\n        /* \"PET/AccessControl .sol\":462:528  bytes32 public constant USER = keccak256(abi.encodePacked(\"USER\")) */\n    tag_5:\n      tag_16\n      tag_17\n      jump\t// in\n    tag_16:\n      mload(0x40)\n      tag_18\n      swap2\n      swap1\n      tag_11\n      jump\t// in\n    tag_18:\n      mload(0x40)\n      dup1\n      swap2\n      sub\n      swap1\n      return\n        /* \"PET/AccessControl .sol\":1100:1225  function revokeRole(bytes32 _role, address _account) external onlyRole(ADMIN)  {... */\n    tag_6:\n      tag_19\n      0x04\n      dup1\n      calldatasize\n      sub\n      dup2\n      add\n      swap1\n      tag_20\n      swap2\n      swap1\n      tag_14\n      jump\t// in\n    tag_20:\n      tag_21\n      jump\t// in\n    tag_19:\n      stop\n        /* \"PET/AccessControl .sol\":308:365  mapping(bytes32 => mapping(address => bool)) public roles */\n    tag_7:\n      tag_22\n      0x04\n      dup1\n      calldatasize\n      sub\n      dup2\n      add\n      swap1\n      tag_23\n      swap2\n      swap1\n      tag_14\n      jump\t// in\n    tag_23:\n      tag_24\n      jump\t// in\n    tag_22:\n      mload(0x40)\n      tag_25\n      swap2\n      swap1\n      tag_26\n      jump\t// in\n    tag_25:\n      mload(0x40)\n      dup1\n      swap2\n      sub\n      swap1\n      return\n        /* \"PET/AccessControl .sol\":387:455  bytes32 public constant ADMIN = keccak256(abi.encodePacked(\"ADMIN\")) */\n    tag_9:\n        /* \"PET/AccessControl .sol\":429:454  abi.encodePacked(\"ADMIN\") */\n      add(0x20, mload(0x40))\n      tag_27\n      swap1\n      tag_28\n      jump\t// in\n    tag_27:\n      mload(0x40)\n      0x20\n      dup2\n      dup4\n      sub\n      sub\n      dup2\n      mstore\n      swap1\n      0x40\n      mstore\n        /* \"PET/AccessControl .sol\":419:455  keccak256(abi.encodePacked(\"ADMIN\")) */\n      dup1\n      mload\n      swap1\n      0x20\n      add\n      keccak256\n        /* \"PET/AccessControl .sol\":387:455  bytes32 public constant ADMIN = keccak256(abi.encodePacked(\"ADMIN\")) */\n      dup2\n      jump\t// out\n        /* \"PET/AccessControl .sol\":809:932  function grantRole(bytes32 _role, address _account) external onlyRole(ADMIN)  {... */\n    tag_15:\n        /* \"PET/AccessControl .sol\":429:454  abi.encodePacked(\"ADMIN\") */\n      add(0x20, mload(0x40))\n      tag_29\n      swap1\n      tag_28\n      jump\t// in\n    tag_29:\n      mload(0x40)\n      0x20\n      dup2\n      dup4\n      sub\n      sub\n      dup2\n      mstore\n      swap1\n      0x40\n      mstore\n        /* \"PET/AccessControl .sol\":419:455  keccak256(abi.encodePacked(\"ADMIN\")) */\n      dup1\n      mload\n      swap1\n      0x20\n      add\n      keccak256\n        /* \"PET/AccessControl .sol\":588:593  roles */\n      0x00\n        /* \"PET/AccessControl .sol\":588:600  roles[_role] */\n      dup1\n        /* \"PET/AccessControl .sol\":594:599  _role */\n      dup3\n        /* \"PET/AccessControl .sol\":588:600  roles[_role] */\n      dup2\n      mstore\n      0x20\n      add\n      swap1\n      dup2\n      mstore\n      0x20\n      add\n      0x00\n      keccak256\n        /* \"PET/AccessControl .sol\":588:612  roles[_role][msg.sender] */\n      0x00\n        /* \"PET/AccessControl .sol\":601:611  msg.sender */\n      caller\n        /* \"PET/AccessControl .sol\":588:612  roles[_role][msg.sender] */\n      0xffffffffffffffffffffffffffffffffffffffff\n      and\n      0xffffffffffffffffffffffffffffffffffffffff\n      and\n      dup2\n      mstore\n      0x20\n      add\n      swap1\n      dup2\n      mstore\n      0x20\n      add\n      0x00\n      keccak256\n      0x00\n      swap1\n      sload\n      swap1\n      0x0100\n      exp\n      swap1\n      div\n      0xff\n      and\n        /* \"PET/AccessControl .sol\":584:663  if(!roles[_role][msg.sender]) {... */\n      tag_31\n      jumpi\n        /* \"PET/AccessControl .sol\":645:650  _role */\n      dup1\n        /* \"PET/AccessControl .sol\":636:651  OnlyRole(_role) */\n      mload(0x40)\n      0x3e50dc1300000000000000000000000000000000000000000000000000000000\n      dup2\n      mstore\n      0x04\n      add\n      tag_32\n      swap2\n      swap1\n      tag_11\n      jump\t// in\n    tag_32:\n      mload(0x40)\n      dup1\n      swap2\n      sub\n      swap1\n      revert\n        /* \"PET/AccessControl .sol\":584:663  if(!roles[_role][msg.sender]) {... */\n    tag_31:\n        /* \"PET/AccessControl .sol\":898:924  _grantRole(_role,_account) */\n      tag_34\n        /* \"PET/AccessControl .sol\":909:914  _role */\n      dup4\n        /* \"PET/AccessControl .sol\":915:923  _account */\n      dup4\n        /* \"PET/AccessControl .sol\":898:908  _grantRole */\n      tag_35\n        /* \"PET/AccessControl .sol\":898:924  _grantRole(_role,_account) */\n      jump\t// in\n    tag_34:\n        /* \"PET/AccessControl .sol\":809:932  function grantRole(bytes32 _role, address _account) external onlyRole(ADMIN)  {... */\n      pop\n      pop\n      pop\n      jump\t// out\n        /* \"PET/AccessControl .sol\":462:528  bytes32 public constant USER = keccak256(abi.encodePacked(\"USER\")) */\n    tag_17:\n        /* \"PET/AccessControl .sol\":503:527  abi.encodePacked(\"USER\") */\n      add(0x20, mload(0x40))\n      tag_36\n      swap1\n      tag_37\n      jump\t// in\n    tag_36:\n      mload(0x40)\n      0x20\n      dup2\n      dup4\n      sub\n      sub\n      dup2\n      mstore\n      swap1\n      0x40\n      mstore\n        /* \"PET/AccessControl .sol\":493:528  keccak256(abi.encodePacked(\"USER\")) */\n      dup1\n      mload\n      swap1\n      0x20\n      add\n      keccak256\n        /* \"PET/AccessControl .sol\":462:528  bytes32 public constant USER = keccak256(abi.encodePacked(\"USER\")) */\n      dup2\n      jump\t// out\n        /* \"PET/AccessControl .sol\":1100:1225  function revokeRole(bytes32 _role, address _account) external onlyRole(ADMIN)  {... */\n    tag_21:\n        /* \"PET/AccessControl .sol\":429:454  abi.encodePacked(\"ADMIN\") */\n      add(0x20, mload(0x40))\n      tag_38\n      swap1\n      tag_28\n      jump\t// in\n    tag_38:\n      mload(0x40)\n      0x20\n      dup2\n      dup4\n      sub\n      sub\n      dup2\n      mstore\n      swap1\n      0x40\n      mstore\n        /* \"PET/AccessControl .sol\":419:455  keccak256(abi.encodePacked(\"ADMIN\")) */\n      dup1\n      mload\n      swap1\n      0x20\n      add\n      keccak256\n        /* \"PET/AccessControl .sol\":588:593  roles */\n      0x00\n        /* \"PET/AccessControl .sol\":588:600  roles[_role] */\n      dup1\n        /* \"PET/AccessControl .sol\":594:599  _role */\n      dup3\n        /* \"PET/AccessControl .sol\":588:600  roles[_role] */\n      dup2\n      mstore\n      0x20\n      add\n      swap1\n      dup2\n      mstore\n      0x20\n      add\n      0x00\n      keccak256\n        /* \"PET/AccessControl .sol\":588:612  roles[_role][msg.sender] */\n      0x00\n        /* \"PET/AccessControl .sol\":601:611  msg.sender */\n      caller\n        /* \"PET/AccessControl .sol\":588:612  roles[_role][msg.sender] */\n      0xffffffffffffffffffffffffffffffffffffffff\n      and\n      0xffffffffffffffffffffffffffffffffffffffff\n      and\n      dup2\n      mstore\n      0x20\n      add\n      swap1\n      dup2\n      mstore\n      0x20\n      add\n      0x00\n      keccak256\n      0x00\n      swap1\n      sload\n      swap1\n      0x0100\n      exp\n      swap1\n      div\n      0xff\n      and\n        /* \"PET/AccessControl .sol\":584:663  if(!roles[_role][msg.sender]) {... */\n      tag_40\n      jumpi\n        /* \"PET/AccessControl .sol\":645:650  _role */\n      dup1\n        /* \"PET/AccessControl .sol\":636:651  OnlyRole(_role) */\n      mload(0x40)\n      0x3e50dc1300000000000000000000000000000000000000000000000000000000\n      dup2\n      mstore\n      0x04\n      add\n      tag_41\n      swap2\n      swap1\n      tag_11\n      jump\t// in\n    tag_41:\n      mload(0x40)\n      dup1\n      swap2\n      sub\n      swap1\n      revert\n        /* \"PET/AccessControl .sol\":584:663  if(!roles[_role][msg.sender]) {... */\n    tag_40:\n        /* \"PET/AccessControl .sol\":1190:1217  _revokeRole(_role,_account) */\n      tag_43\n        /* \"PET/AccessControl .sol\":1202:1207  _role */\n      dup4\n        /* \"PET/AccessControl .sol\":1208:1216  _account */\n      dup4\n        /* \"PET/AccessControl .sol\":1190:1201  _revokeRole */\n      tag_44\n        /* \"PET/AccessControl .sol\":1190:1217  _revokeRole(_role,_account) */\n      jump\t// in\n    tag_43:\n        /* \"PET/AccessControl .sol\":1100:1225  function revokeRole(bytes32 _role, address _account) external onlyRole(ADMIN)  {... */\n      pop\n      pop\n      pop\n      jump\t// out\n        /* \"PET/AccessControl .sol\":308:365  mapping(bytes32 => mapping(address => bool)) public roles */\n    tag_24:\n      mstore(0x20, 0x00)\n      dup2\n      0x00\n      mstore\n      mstore(0x20, keccak256(0x00, 0x40))\n      dup1\n      0x00\n      mstore\n      keccak256(0x00, 0x40)\n      0x00\n      swap2\n      pop\n      swap2\n      pop\n      swap1\n      sload\n      swap1\n      0x0100\n      exp\n      swap1\n      div\n      0xff\n      and\n      dup2\n      jump\t// out\n        /* \"PET/AccessControl .sol\":940:1092  function _grantRole(bytes32 _role, address _account) internal {... */\n    tag_35:\n        /* \"PET/AccessControl .sol\":1038:1042  true */\n      0x01\n        /* \"PET/AccessControl .sol\":1013:1018  roles */\n      0x00\n        /* \"PET/AccessControl .sol\":1013:1025  roles[_role] */\n      dup1\n        /* \"PET/AccessControl .sol\":1019:1024  _role */\n      dup5\n        /* \"PET/AccessControl .sol\":1013:1025  roles[_role] */\n      dup2\n      mstore\n      0x20\n      add\n      swap1\n      dup2\n      mstore\n      0x20\n      add\n      0x00\n      keccak256\n        /* \"PET/AccessControl .sol\":1013:1035  roles[_role][_account] */\n      0x00\n        /* \"PET/AccessControl .sol\":1026:1034  _account */\n      dup4\n        /* \"PET/AccessControl .sol\":1013:1035  roles[_role][_account] */\n      0xffffffffffffffffffffffffffffffffffffffff\n      and\n      0xffffffffffffffffffffffffffffffffffffffff\n      and\n      dup2\n      mstore\n      0x20\n      add\n      swap1\n      dup2\n      mstore\n      0x20\n      add\n      0x00\n      keccak256\n      0x00\n        /* \"PET/AccessControl .sol\":1013:1042  roles[_role][_account] = true */\n      0x0100\n      exp\n      dup2\n      sload\n      dup2\n      0xff\n      mul\n      not\n      and\n      swap1\n      dup4\n      iszero\n      iszero\n      mul\n      or\n      swap1\n      sstore\n      pop\n        /* \"PET/AccessControl .sol\":1075:1083  _account */\n      dup1\n        /* \"PET/AccessControl .sol\":1058:1084  GrantRole(_role, _account) */\n      0xffffffffffffffffffffffffffffffffffffffff\n      and\n        /* \"PET/AccessControl .sol\":1068:1073  _role */\n      dup3\n        /* \"PET/AccessControl .sol\":1058:1084  GrantRole(_role, _account) */\n      0x5a06360d65acf95e98445dc834f205063424c636e65418d928cdfabc33a95399\n      mload(0x40)\n      mload(0x40)\n      dup1\n      swap2\n      sub\n      swap1\n      log3\n        /* \"PET/AccessControl .sol\":940:1092  function _grantRole(bytes32 _role, address _account) internal {... */\n      pop\n      pop\n      jump\t// out\n        /* \"PET/AccessControl .sol\":1237:1392  function _revokeRole(bytes32 _role, address _account) internal {... */\n    tag_44:\n        /* \"PET/AccessControl .sol\":1336:1341  false */\n      0x00\n        /* \"PET/AccessControl .sol\":1311:1316  roles */\n      dup1\n        /* \"PET/AccessControl .sol\":1311:1323  roles[_role] */\n      0x00\n        /* \"PET/AccessControl .sol\":1317:1322  _role */\n      dup5\n        /* \"PET/AccessControl .sol\":1311:1323  roles[_role] */\n      dup2\n      mstore\n      0x20\n      add\n      swap1\n      dup2\n      mstore\n      0x20\n      add\n      0x00\n      keccak256\n        /* \"PET/AccessControl .sol\":1311:1333  roles[_role][_account] */\n      0x00\n        /* \"PET/AccessControl .sol\":1324:1332  _account */\n      dup4\n        /* \"PET/AccessControl .sol\":1311:1333  roles[_role][_account] */\n      0xffffffffffffffffffffffffffffffffffffffff\n      and\n      0xffffffffffffffffffffffffffffffffffffffff\n      and\n      dup2\n      mstore\n      0x20\n      add\n      swap1\n      dup2\n      mstore\n      0x20\n      add\n      0x00\n      keccak256\n      0x00\n        /* \"PET/AccessControl .sol\":1311:1341  roles[_role][_account] = false */\n      0x0100\n      exp\n      dup2\n      sload\n      dup2\n      0xff\n      mul\n      not\n      and\n      swap1\n      dup4\n      iszero\n      iszero\n      mul\n      or\n      swap1\n      sstore\n      pop\n        /* \"PET/AccessControl .sol\":1375:1383  _account */\n      dup1\n        /* \"PET/AccessControl .sol\":1357:1384  RevokeRole(_role, _account) */\n      0xffffffffffffffffffffffffffffffffffffffff\n      and\n        /* \"PET/AccessControl .sol\":1368:1373  _role */\n      dup3\n        /* \"PET/AccessControl .sol\":1357:1384  RevokeRole(_role, _account) */\n      0x76e6093c136cd7faa5a6d92b2b633f3b4595abd4a529b7a13917398355fea694\n      mload(0x40)\n      mload(0x40)\n      dup1\n      swap2\n      sub\n      swap1\n      log3\n        /* \"PET/AccessControl .sol\":1237:1392  function _revokeRole(bytes32 _role, address _account) internal {... */\n      pop\n      pop\n      jump\t// out\n        /* \"#utility.yul\":7:84   */\n    tag_47:\n        /* \"#utility.yul\":44:51   */\n      0x00\n        /* \"#utility.yul\":73:78   */\n      dup2\n        /* \"#utility.yul\":62:78   */\n      swap1\n      pop\n        /* \"#utility.yul\":7:84   */\n      swap2\n      swap1\n      pop\n      jump\t// out\n        /* \"#utility.yul\":90:208   */\n    tag_48:\n        /* \"#utility.yul\":177:201   */\n      tag_68\n        /* \"#utility.yul\":195:200   */\n      dup2\n        /* \"#utility.yul\":177:201   */\n      tag_47\n      jump\t// in\n    tag_68:\n        /* \"#utility.yul\":172:175   */\n      dup3\n        /* \"#utility.yul\":165:202   */\n      mstore\n        /* \"#utility.yul\":90:208   */\n      pop\n      pop\n      jump\t// out\n        /* \"#utility.yul\":214:436   */\n    tag_11:\n        /* \"#utility.yul\":307:311   */\n      0x00\n        /* \"#utility.yul\":345:347   */\n      0x20\n        /* \"#utility.yul\":334:343   */\n      dup3\n        /* \"#utility.yul\":330:348   */\n      add\n        /* \"#utility.yul\":322:348   */\n      swap1\n      pop\n        /* \"#utility.yul\":358:429   */\n      tag_70\n        /* \"#utility.yul\":426:427   */\n      0x00\n        /* \"#utility.yul\":415:424   */\n      dup4\n        /* \"#utility.yul\":411:428   */\n      add\n        /* \"#utility.yul\":402:408   */\n      dup5\n        /* \"#utility.yul\":358:429   */\n      tag_48\n      jump\t// in\n    tag_70:\n        /* \"#utility.yul\":214:436   */\n      swap3\n      swap2\n      pop\n      pop\n      jump\t// out\n        /* \"#utility.yul\":523:640   */\n    tag_50:\n        /* \"#utility.yul\":632:633   */\n      0x00\n        /* \"#utility.yul\":629:630   */\n      dup1\n        /* \"#utility.yul\":622:634   */\n      revert\n        /* \"#utility.yul\":769:891   */\n    tag_52:\n        /* \"#utility.yul\":842:866   */\n      tag_75\n        /* \"#utility.yul\":860:865   */\n      dup2\n        /* \"#utility.yul\":842:866   */\n      tag_47\n      jump\t// in\n    tag_75:\n        /* \"#utility.yul\":835:840   */\n      dup2\n        /* \"#utility.yul\":832:867   */\n      eq\n        /* \"#utility.yul\":822:885   */\n      tag_76\n      jumpi\n        /* \"#utility.yul\":881:882   */\n      0x00\n        /* \"#utility.yul\":878:879   */\n      dup1\n        /* \"#utility.yul\":871:883   */\n      revert\n        /* \"#utility.yul\":822:885   */\n    tag_76:\n        /* \"#utility.yul\":769:891   */\n      pop\n      jump\t// out\n        /* \"#utility.yul\":897:1036   */\n    tag_53:\n        /* \"#utility.yul\":943:948   */\n      0x00\n        /* \"#utility.yul\":981:987   */\n      dup2\n        /* \"#utility.yul\":968:988   */\n      calldataload\n        /* \"#utility.yul\":959:988   */\n      swap1\n      pop\n        /* \"#utility.yul\":997:1030   */\n      tag_78\n        /* \"#utility.yul\":1024:1029   */\n      dup2\n        /* \"#utility.yul\":997:1030   */\n      tag_52\n      jump\t// in\n    tag_78:\n        /* \"#utility.yul\":897:1036   */\n      swap3\n      swap2\n      pop\n      pop\n      jump\t// out\n        /* \"#utility.yul\":1042:1168   */\n    tag_54:\n        /* \"#utility.yul\":1079:1086   */\n      0x00\n        /* \"#utility.yul\":1119:1161   */\n      0xffffffffffffffffffffffffffffffffffffffff\n        /* \"#utility.yul\":1112:1117   */\n      dup3\n        /* \"#utility.yul\":1108:1162   */\n      and\n        /* \"#utility.yul\":1097:1162   */\n      swap1\n      pop\n        /* \"#utility.yul\":1042:1168   */\n      swap2\n      swap1\n      pop\n      jump\t// out\n        /* \"#utility.yul\":1174:1270   */\n    tag_55:\n        /* \"#utility.yul\":1211:1218   */\n      0x00\n        /* \"#utility.yul\":1240:1264   */\n      tag_81\n        /* \"#utility.yul\":1258:1263   */\n      dup3\n        /* \"#utility.yul\":1240:1264   */\n      tag_54\n      jump\t// in\n    tag_81:\n        /* \"#utility.yul\":1229:1264   */\n      swap1\n      pop\n        /* \"#utility.yul\":1174:1270   */\n      swap2\n      swap1\n      pop\n      jump\t// out\n        /* \"#utility.yul\":1276:1398   */\n    tag_56:\n        /* \"#utility.yul\":1349:1373   */\n      tag_83\n        /* \"#utility.yul\":1367:1372   */\n      dup2\n        /* \"#utility.yul\":1349:1373   */\n      tag_55\n      jump\t// in\n    tag_83:\n        /* \"#utility.yul\":1342:1347   */\n      dup2\n        /* \"#utility.yul\":1339:1374   */\n      eq\n        /* \"#utility.yul\":1329:1392   */\n      tag_84\n      jumpi\n        /* \"#utility.yul\":1388:1389   */\n      0x00\n        /* \"#utility.yul\":1385:1386   */\n      dup1\n        /* \"#utility.yul\":1378:1390   */\n      revert\n        /* \"#utility.yul\":1329:1392   */\n    tag_84:\n        /* \"#utility.yul\":1276:1398   */\n      pop\n      jump\t// out\n        /* \"#utility.yul\":1404:1543   */\n    tag_57:\n        /* \"#utility.yul\":1450:1455   */\n      0x00\n        /* \"#utility.yul\":1488:1494   */\n      dup2\n        /* \"#utility.yul\":1475:1495   */\n      calldataload\n        /* \"#utility.yul\":1466:1495   */\n      swap1\n      pop\n        /* \"#utility.yul\":1504:1537   */\n      tag_86\n        /* \"#utility.yul\":1531:1536   */\n      dup2\n        /* \"#utility.yul\":1504:1537   */\n      tag_56\n      jump\t// in\n    tag_86:\n        /* \"#utility.yul\":1404:1543   */\n      swap3\n      swap2\n      pop\n      pop\n      jump\t// out\n        /* \"#utility.yul\":1549:2023   */\n    tag_14:\n        /* \"#utility.yul\":1617:1623   */\n      0x00\n        /* \"#utility.yul\":1625:1631   */\n      dup1\n        /* \"#utility.yul\":1674:1676   */\n      0x40\n        /* \"#utility.yul\":1662:1671   */\n      dup4\n        /* \"#utility.yul\":1653:1660   */\n      dup6\n        /* \"#utility.yul\":1649:1672   */\n      sub\n        /* \"#utility.yul\":1645:1677   */\n      slt\n        /* \"#utility.yul\":1642:1761   */\n      iszero\n      tag_88\n      jumpi\n        /* \"#utility.yul\":1680:1759   */\n      tag_89\n      tag_50\n      jump\t// in\n    tag_89:\n        /* \"#utility.yul\":1642:1761   */\n    tag_88:\n        /* \"#utility.yul\":1800:1801   */\n      0x00\n        /* \"#utility.yul\":1825:1878   */\n      tag_90\n        /* \"#utility.yul\":1870:1877   */\n      dup6\n        /* \"#utility.yul\":1861:1867   */\n      dup3\n        /* \"#utility.yul\":1850:1859   */\n      dup7\n        /* \"#utility.yul\":1846:1868   */\n      add\n        /* \"#utility.yul\":1825:1878   */\n      tag_53\n      jump\t// in\n    tag_90:\n        /* \"#utility.yul\":1815:1878   */\n      swap3\n      pop\n        /* \"#utility.yul\":1771:1888   */\n      pop\n        /* \"#utility.yul\":1927:1929   */\n      0x20\n        /* \"#utility.yul\":1953:2006   */\n      tag_91\n        /* \"#utility.yul\":1998:2005   */\n      dup6\n        /* \"#utility.yul\":1989:1995   */\n      dup3\n        /* \"#utility.yul\":1978:1987   */\n      dup7\n        /* \"#utility.yul\":1974:1996   */\n      add\n        /* \"#utility.yul\":1953:2006   */\n      tag_57\n      jump\t// in\n    tag_91:\n        /* \"#utility.yul\":1943:2006   */\n      swap2\n      pop\n        /* \"#utility.yul\":1898:2016   */\n      pop\n        /* \"#utility.yul\":1549:2023   */\n      swap3\n      pop\n      swap3\n      swap1\n      pop\n      jump\t// out\n        /* \"#utility.yul\":2029:2119   */\n    tag_58:\n        /* \"#utility.yul\":2063:2070   */\n      0x00\n        /* \"#utility.yul\":2106:2111   */\n      dup2\n        /* \"#utility.yul\":2099:2112   */\n      iszero\n        /* \"#utility.yul\":2092:2113   */\n      iszero\n        /* \"#utility.yul\":2081:2113   */\n      swap1\n      pop\n        /* \"#utility.yul\":2029:2119   */\n      swap2\n      swap1\n      pop\n      jump\t// out\n        /* \"#utility.yul\":2125:2234   */\n    tag_59:\n        /* \"#utility.yul\":2206:2227   */\n      tag_94\n        /* \"#utility.yul\":2221:2226   */\n      dup2\n        /* \"#utility.yul\":2206:2227   */\n      tag_58\n      jump\t// in\n    tag_94:\n        /* \"#utility.yul\":2201:2204   */\n      dup3\n        /* \"#utility.yul\":2194:2228   */\n      mstore\n        /* \"#utility.yul\":2125:2234   */\n      pop\n      pop\n      jump\t// out\n        /* \"#utility.yul\":2240:2450   */\n    tag_26:\n        /* \"#utility.yul\":2327:2331   */\n      0x00\n        /* \"#utility.yul\":2365:2367   */\n      0x20\n        /* \"#utility.yul\":2354:2363   */\n      dup3\n        /* \"#utility.yul\":2350:2368   */\n      add\n        /* \"#utility.yul\":2342:2368   */\n      swap1\n      pop\n        /* \"#utility.yul\":2378:2443   */\n      tag_96\n        /* \"#utility.yul\":2440:2441   */\n      0x00\n        /* \"#utility.yul\":2429:2438   */\n      dup4\n        /* \"#utility.yul\":2425:2442   */\n      add\n        /* \"#utility.yul\":2416:2422   */\n      dup5\n        /* \"#utility.yul\":2378:2443   */\n      tag_59\n      jump\t// in\n    tag_96:\n        /* \"#utility.yul\":2240:2450   */\n      swap3\n      swap2\n      pop\n      pop\n      jump\t// out\n        /* \"#utility.yul\":2456:2604   */\n    tag_60:\n        /* \"#utility.yul\":2558:2569   */\n      0x00\n        /* \"#utility.yul\":2595:2598   */\n      dup2\n        /* \"#utility.yul\":2580:2598   */\n      swap1\n      pop\n        /* \"#utility.yul\":2456:2604   */\n      swap3\n      swap2\n      pop\n      pop\n      jump\t// out\n        /* \"#utility.yul\":2610:2765   */\n    tag_61:\n        /* \"#utility.yul\":2750:2757   */\n      0x41444d494e000000000000000000000000000000000000000000000000000000\n        /* \"#utility.yul\":2746:2747   */\n      0x00\n        /* \"#utility.yul\":2738:2744   */\n      dup3\n        /* \"#utility.yul\":2734:2748   */\n      add\n        /* \"#utility.yul\":2727:2758   */\n      mstore\n        /* \"#utility.yul\":2610:2765   */\n      pop\n      jump\t// out\n        /* \"#utility.yul\":2771:3171   */\n    tag_62:\n        /* \"#utility.yul\":2931:2934   */\n      0x00\n        /* \"#utility.yul\":2952:3036   */\n      tag_100\n        /* \"#utility.yul\":3034:3035   */\n      0x05\n        /* \"#utility.yul\":3029:3032   */\n      dup4\n        /* \"#utility.yul\":2952:3036   */\n      tag_60\n      jump\t// in\n    tag_100:\n        /* \"#utility.yul\":2945:3036   */\n      swap2\n      pop\n        /* \"#utility.yul\":3045:3138   */\n      tag_101\n        /* \"#utility.yul\":3134:3137   */\n      dup3\n        /* \"#utility.yul\":3045:3138   */\n      tag_61\n      jump\t// in\n    tag_101:\n        /* \"#utility.yul\":3163:3164   */\n      0x05\n        /* \"#utility.yul\":3158:3161   */\n      dup3\n        /* \"#utility.yul\":3154:3165   */\n      add\n        /* \"#utility.yul\":3147:3165   */\n      swap1\n      pop\n        /* \"#utility.yul\":2771:3171   */\n      swap2\n      swap1\n      pop\n      jump\t// out\n        /* \"#utility.yul\":3177:3558   */\n    tag_28:\n        /* \"#utility.yul\":3362:3365   */\n      0x00\n        /* \"#utility.yul\":3384:3532   */\n      tag_103\n        /* \"#utility.yul\":3528:3531   */\n      dup3\n        /* \"#utility.yul\":3384:3532   */\n      tag_62\n      jump\t// in\n    tag_103:\n        /* \"#utility.yul\":3377:3532   */\n      swap2\n      pop\n        /* \"#utility.yul\":3549:3552   */\n      dup2\n        /* \"#utility.yul\":3542:3552   */\n      swap1\n      pop\n        /* \"#utility.yul\":3177:3558   */\n      swap2\n      swap1\n      pop\n      jump\t// out\n        /* \"#utility.yul\":3564:3718   */\n    tag_63:\n        /* \"#utility.yul\":3704:3710   */\n      0x5553455200000000000000000000000000000000000000000000000000000000\n        /* \"#utility.yul\":3700:3701   */\n      0x00\n        /* \"#utility.yul\":3692:3698   */\n      dup3\n        /* \"#utility.yul\":3688:3702   */\n      add\n        /* \"#utility.yul\":3681:3711   */\n      mstore\n        /* \"#utility.yul\":3564:3718   */\n      pop\n      jump\t// out\n        /* \"#utility.yul\":3724:4124   */\n    tag_64:\n        /* \"#utility.yul\":3884:3887   */\n      0x00\n        /* \"#utility.yul\":3905:3989   */\n      tag_106\n        /* \"#utility.yul\":3987:3988   */\n      0x04\n        /* \"#utility.yul\":3982:3985   */\n      dup4\n        /* \"#utility.yul\":3905:3989   */\n      tag_60\n      jump\t// in\n    tag_106:\n        /* \"#utility.yul\":3898:3989   */\n      swap2\n      pop\n        /* \"#utility.yul\":3998:4091   */\n      tag_107\n        /* \"#utility.yul\":4087:4090   */\n      dup3\n        /* \"#utility.yul\":3998:4091   */\n      tag_63\n      jump\t// in\n    tag_107:\n        /* \"#utility.yul\":4116:4117   */\n      0x04\n        /* \"#utility.yul\":4111:4114   */\n      dup3\n        /* \"#utility.yul\":4107:4118   */\n      add\n        /* \"#utility.yul\":4100:4118   */\n      swap1\n      pop\n        /* \"#utility.yul\":3724:4124   */\n      swap2\n      swap1\n      pop\n      jump\t// out\n        /* \"#utility.yul\":4130:4511   */\n    tag_37:\n        /* \"#utility.yul\":4315:4318   */\n      0x00\n        /* \"#utility.yul\":4337:4485   */\n      tag_109\n        /* \"#utility.yul\":4481:4484   */\n      dup3\n        /* \"#utility.yul\":4337:4485   */\n      tag_64\n      jump\t// in\n    tag_109:\n        /* \"#utility.yul\":4330:4485   */\n      swap2\n      pop\n        /* \"#utility.yul\":4502:4505   */\n      dup2\n        /* \"#utility.yul\":4495:4505   */\n      swap1\n      pop\n        /* \"#utility.yul\":4130:4511   */\n      swap2\n      swap1\n      pop\n      jump\t// out\n\n    auxdata: 0xa2646970667358221220f50d050f4817f33af5ad4e88bb534368c66b6efa2d155371ff24582df5e1e11664736f6c63430008120033\n}\n",
				"bytecode": {
					"linkReferences": {},
					"object": "608060405234801561001057600080fd5b5061004560405160200161002390610151565b604051602081830303815290604052805190602001203361004a60201b60201c565b610166565b600160008084815260200190815260200160002060008373ffffffffffffffffffffffffffffffffffffffff1673ffffffffffffffffffffffffffffffffffffffff16815260200190815260200160002060006101000a81548160ff0219169083151502179055508073ffffffffffffffffffffffffffffffffffffffff16827f5a06360d65acf95e98445dc834f205063424c636e65418d928cdfabc33a9539960405160405180910390a35050565b600081905092915050565b7f41444d494e000000000000000000000000000000000000000000000000000000600082015250565b600061013b6005836100fa565b915061014682610105565b600582019050919050565b600061015c8261012e565b9150819050919050565b6106bf806101756000396000f3fe608060405234801561001057600080fd5b50600436106100575760003560e01c80632a0acc6a1461005c5780632f2ff15d1461007a57806381e167cf14610096578063d547741f146100b4578063f8fc08b9146100d0575b600080fd5b610064610100565b604051610071919061049c565b60405180910390f35b610094600480360381019061008f9190610546565b610128565b005b61009e6101fa565b6040516100ab919061049c565b60405180910390f35b6100ce60048036038101906100c99190610546565b610222565b005b6100ea60048036038101906100e59190610546565b6102f4565b6040516100f791906105a1565b60405180910390f35b60405160200161010f90610613565b6040516020818303038152906040528051906020012081565b60405160200161013790610613565b6040516020818303038152906040528051906020012060008082815260200190815260200160002060003373ffffffffffffffffffffffffffffffffffffffff1673ffffffffffffffffffffffffffffffffffffffff16815260200190815260200160002060009054906101000a900460ff166101eb57806040517f3e50dc130000000000000000000000000000000000000000000000000000000081526004016101e2919061049c565b60405180910390fd5b6101f58383610323565b505050565b60405160200161020990610674565b6040516020818303038152906040528051906020012081565b60405160200161023190610613565b6040516020818303038152906040528051906020012060008082815260200190815260200160002060003373ffffffffffffffffffffffffffffffffffffffff1673ffffffffffffffffffffffffffffffffffffffff16815260200190815260200160002060009054906101000a900460ff166102e557806040517f3e50dc130000000000000000000000000000000000000000000000000000000081526004016102dc919061049c565b60405180910390fd5b6102ef83836103d3565b505050565b60006020528160005260406000206020528060005260406000206000915091509054906101000a900460ff1681565b600160008084815260200190815260200160002060008373ffffffffffffffffffffffffffffffffffffffff1673ffffffffffffffffffffffffffffffffffffffff16815260200190815260200160002060006101000a81548160ff0219169083151502179055508073ffffffffffffffffffffffffffffffffffffffff16827f5a06360d65acf95e98445dc834f205063424c636e65418d928cdfabc33a9539960405160405180910390a35050565b600080600084815260200190815260200160002060008373ffffffffffffffffffffffffffffffffffffffff1673ffffffffffffffffffffffffffffffffffffffff16815260200190815260200160002060006101000a81548160ff0219169083151502179055508073ffffffffffffffffffffffffffffffffffffffff16827f76e6093c136cd7faa5a6d92b2b633f3b4595abd4a529b7a13917398355fea69460405160405180910390a35050565b6000819050919050565b61049681610483565b82525050565b60006020820190506104b1600083018461048d565b92915050565b600080fd5b6104c581610483565b81146104d057600080fd5b50565b6000813590506104e2816104bc565b92915050565b600073ffffffffffffffffffffffffffffffffffffffff82169050919050565b6000610513826104e8565b9050919050565b61052381610508565b811461052e57600080fd5b50565b6000813590506105408161051a565b92915050565b6000806040838503121561055d5761055c6104b7565b5b600061056b858286016104d3565b925050602061057c85828601610531565b9150509250929050565b60008115159050919050565b61059b81610586565b82525050565b60006020820190506105b66000830184610592565b92915050565b600081905092915050565b7f41444d494e000000000000000000000000000000000000000000000000000000600082015250565b60006105fd6005836105bc565b9150610608826105c7565b600582019050919050565b600061061e826105f0565b9150819050919050565b7f5553455200000000000000000000000000000000000000000000000000000000600082015250565b600061065e6004836105bc565b915061066982610628565b600482019050919050565b600061067f82610651565b915081905091905056fea2646970667358221220f50d050f4817f33af5ad4e88bb534368c66b6efa2d155371ff24582df5e1e11664736f6c63430008120033",
					"opcodes": "PUSH1 0x80 PUSH1 0x40 MSTORE CALLVALUE DUP1 ISZERO PUSH2 0x10 JUMPI PUSH1 0x0 DUP1 REVERT JUMPDEST POP PUSH2 0x45 PUSH1 0x40 MLOAD PUSH1 0x20 ADD PUSH2 0x23 SWAP1 PUSH2 0x151 JUMP JUMPDEST PUSH1 0x40 MLOAD PUSH1 0x20 DUP2 DUP4 SUB SUB DUP2 MSTORE SWAP1 PUSH1 0x40 MSTORE DUP1 MLOAD SWAP1 PUSH1 0x20 ADD KECCAK256 CALLER PUSH2 0x4A PUSH1 0x20 SHL PUSH1 0x20 SHR JUMP JUMPDEST PUSH2 0x166 JUMP JUMPDEST PUSH1 0x1 PUSH1 0x0 DUP1 DUP5 DUP2 MSTORE PUSH1 0x20 ADD SWAP1 DUP2 MSTORE PUSH1 0x20 ADD PUSH1 0x0 KECCAK256 PUSH1 0x0 DUP4 PUSH20 0xFFFFFFFFFFFFFFFFFFFFFFFFFFFFFFFFFFFFFFFF AND PUSH20 0xFFFFFFFFFFFFFFFFFFFFFFFFFFFFFFFFFFFFFFFF AND DUP2 MSTORE PUSH1 0x20 ADD SWAP1 DUP2 MSTORE PUSH1 0x20 ADD PUSH1 0x0 KECCAK256 PUSH1 0x0 PUSH2 0x100 EXP DUP2 SLOAD DUP2 PUSH1 0xFF MUL NOT AND SWAP1 DUP4 ISZERO ISZERO MUL OR SWAP1 SSTORE POP DUP1 PUSH20 0xFFFFFFFFFFFFFFFFFFFFFFFFFFFFFFFFFFFFFFFF AND DUP3 PUSH32 0x5A06360D65ACF95E98445DC834F205063424C636E65418D928CDFABC33A95399 PUSH1 0x40 MLOAD PUSH1 0x40 MLOAD DUP1 SWAP2 SUB SWAP1 LOG3 POP POP JUMP JUMPDEST PUSH1 0x0 DUP2 SWAP1 POP SWAP3 SWAP2 POP POP JUMP JUMPDEST PUSH32 0x41444D494E000000000000000000000000000000000000000000000000000000 PUSH1 0x0 DUP3 ADD MSTORE POP JUMP JUMPDEST PUSH1 0x0 PUSH2 0x13B PUSH1 0x5 DUP4 PUSH2 0xFA JUMP JUMPDEST SWAP2 POP PUSH2 0x146 DUP3 PUSH2 0x105 JUMP JUMPDEST PUSH1 0x5 DUP3 ADD SWAP1 POP SWAP2 SWAP1 POP JUMP JUMPDEST PUSH1 0x0 PUSH2 0x15C DUP3 PUSH2 0x12E JUMP JUMPDEST SWAP2 POP DUP2 SWAP1 POP SWAP2 SWAP1 POP JUMP JUMPDEST PUSH2 0x6BF DUP1 PUSH2 0x175 PUSH1 0x0 CODECOPY PUSH1 0x0 RETURN INVALID PUSH1 0x80 PUSH1 0x40 MSTORE CALLVALUE DUP1 ISZERO PUSH2 0x10 JUMPI PUSH1 0x0 DUP1 REVERT JUMPDEST POP PUSH1 0x4 CALLDATASIZE LT PUSH2 0x57 JUMPI PUSH1 0x0 CALLDATALOAD PUSH1 0xE0 SHR DUP1 PUSH4 0x2A0ACC6A EQ PUSH2 0x5C JUMPI DUP1 PUSH4 0x2F2FF15D EQ PUSH2 0x7A JUMPI DUP1 PUSH4 0x81E167CF EQ PUSH2 0x96 JUMPI DUP1 PUSH4 0xD547741F EQ PUSH2 0xB4 JUMPI DUP1 PUSH4 0xF8FC08B9 EQ PUSH2 0xD0 JUMPI JUMPDEST PUSH1 0x0 DUP1 REVERT JUMPDEST PUSH2 0x64 PUSH2 0x100 JUMP JUMPDEST PUSH1 0x40 MLOAD PUSH2 0x71 SWAP2 SWAP1 PUSH2 0x49C JUMP JUMPDEST PUSH1 0x40 MLOAD DUP1 SWAP2 SUB SWAP1 RETURN JUMPDEST PUSH2 0x94 PUSH1 0x4 DUP1 CALLDATASIZE SUB DUP2 ADD SWAP1 PUSH2 0x8F SWAP2 SWAP1 PUSH2 0x546 JUMP JUMPDEST PUSH2 0x128 JUMP JUMPDEST STOP JUMPDEST PUSH2 0x9E PUSH2 0x1FA JUMP JUMPDEST PUSH1 0x40 MLOAD PUSH2 0xAB SWAP2 SWAP1 PUSH2 0x49C JUMP JUMPDEST PUSH1 0x40 MLOAD DUP1 SWAP2 SUB SWAP1 RETURN JUMPDEST PUSH2 0xCE PUSH1 0x4 DUP1 CALLDATASIZE SUB DUP2 ADD SWAP1 PUSH2 0xC9 SWAP2 SWAP1 PUSH2 0x546 JUMP JUMPDEST PUSH2 0x222 JUMP JUMPDEST STOP JUMPDEST PUSH2 0xEA PUSH1 0x4 DUP1 CALLDATASIZE SUB DUP2 ADD SWAP1 PUSH2 0xE5 SWAP2 SWAP1 PUSH2 0x546 JUMP JUMPDEST PUSH2 0x2F4 JUMP JUMPDEST PUSH1 0x40 MLOAD PUSH2 0xF7 SWAP2 SWAP1 PUSH2 0x5A1 JUMP JUMPDEST PUSH1 0x40 MLOAD DUP1 SWAP2 SUB SWAP1 RETURN JUMPDEST PUSH1 0x40 MLOAD PUSH1 0x20 ADD PUSH2 0x10F SWAP1 PUSH2 0x613 JUMP JUMPDEST PUSH1 0x40 MLOAD PUSH1 0x20 DUP2 DUP4 SUB SUB DUP2 MSTORE SWAP1 PUSH1 0x40 MSTORE DUP1 MLOAD SWAP1 PUSH1 0x20 ADD KECCAK256 DUP2 JUMP JUMPDEST PUSH1 0x40 MLOAD PUSH1 0x20 ADD PUSH2 0x137 SWAP1 PUSH2 0x613 JUMP JUMPDEST PUSH1 0x40 MLOAD PUSH1 0x20 DUP2 DUP4 SUB SUB DUP2 MSTORE SWAP1 PUSH1 0x40 MSTORE DUP1 MLOAD SWAP1 PUSH1 0x20 ADD KECCAK256 PUSH1 0x0 DUP1 DUP3 DUP2 MSTORE PUSH1 0x20 ADD SWAP1 DUP2 MSTORE PUSH1 0x20 ADD PUSH1 0x0 KECCAK256 PUSH1 0x0 CALLER PUSH20 0xFFFFFFFFFFFFFFFFFFFFFFFFFFFFFFFFFFFFFFFF AND PUSH20 0xFFFFFFFFFFFFFFFFFFFFFFFFFFFFFFFFFFFFFFFF AND DUP2 MSTORE PUSH1 0x20 ADD SWAP1 DUP2 MSTORE PUSH1 0x20 ADD PUSH1 0x0 KECCAK256 PUSH1 0x0 SWAP1 SLOAD SWAP1 PUSH2 0x100 EXP SWAP1 DIV PUSH1 0xFF AND PUSH2 0x1EB JUMPI DUP1 PUSH1 0x40 MLOAD PUSH32 0x3E50DC1300000000000000000000000000000000000000000000000000000000 DUP2 MSTORE PUSH1 0x4 ADD PUSH2 0x1E2 SWAP2 SWAP1 PUSH2 0x49C JUMP JUMPDEST PUSH1 0x40 MLOAD DUP1 SWAP2 SUB SWAP1 REVERT JUMPDEST PUSH2 0x1F5 DUP4 DUP4 PUSH2 0x323 JUMP JUMPDEST POP POP POP JUMP JUMPDEST PUSH1 0x40 MLOAD PUSH1 0x20 ADD PUSH2 0x209 SWAP1 PUSH2 0x674 JUMP JUMPDEST PUSH1 0x40 MLOAD PUSH1 0x20 DUP2 DUP4 SUB SUB DUP2 MSTORE SWAP1 PUSH1 0x40 MSTORE DUP1 MLOAD SWAP1 PUSH1 0x20 ADD KECCAK256 DUP2 JUMP JUMPDEST PUSH1 0x40 MLOAD PUSH1 0x20 ADD PUSH2 0x231 SWAP1 PUSH2 0x613 JUMP JUMPDEST PUSH1 0x40 MLOAD PUSH1 0x20 DUP2 DUP4 SUB SUB DUP2 MSTORE SWAP1 PUSH1 0x40 MSTORE DUP1 MLOAD SWAP1 PUSH1 0x20 ADD KECCAK256 PUSH1 0x0 DUP1 DUP3 DUP2 MSTORE PUSH1 0x20 ADD SWAP1 DUP2 MSTORE PUSH1 0x20 ADD PUSH1 0x0 KECCAK256 PUSH1 0x0 CALLER PUSH20 0xFFFFFFFFFFFFFFFFFFFFFFFFFFFFFFFFFFFFFFFF AND PUSH20 0xFFFFFFFFFFFFFFFFFFFFFFFFFFFFFFFFFFFFFFFF AND DUP2 MSTORE PUSH1 0x20 ADD SWAP1 DUP2 MSTORE PUSH1 0x20 ADD PUSH1 0x0 KECCAK256 PUSH1 0x0 SWAP1 SLOAD SWAP1 PUSH2 0x100 EXP SWAP1 DIV PUSH1 0xFF AND PUSH2 0x2E5 JUMPI DUP1 PUSH1 0x40 MLOAD PUSH32 0x3E50DC1300000000000000000000000000000000000000000000000000000000 DUP2 MSTORE PUSH1 0x4 ADD PUSH2 0x2DC SWAP2 SWAP1 PUSH2 0x49C JUMP JUMPDEST PUSH1 0x40 MLOAD DUP1 SWAP2 SUB SWAP1 REVERT JUMPDEST PUSH2 0x2EF DUP4 DUP4 PUSH2 0x3D3 JUMP JUMPDEST POP POP POP JUMP JUMPDEST PUSH1 0x0 PUSH1 0x20 MSTORE DUP2 PUSH1 0x0 MSTORE PUSH1 0x40 PUSH1 0x0 KECCAK256 PUSH1 0x20 MSTORE DUP1 PUSH1 0x0 MSTORE PUSH1 0x40 PUSH1 0x0 KECCAK256 PUSH1 0x0 SWAP2 POP SWAP2 POP SWAP1 SLOAD SWAP1 PUSH2 0x100 EXP SWAP1 DIV PUSH1 0xFF AND DUP2 JUMP JUMPDEST PUSH1 0x1 PUSH1 0x0 DUP1 DUP5 DUP2 MSTORE PUSH1 0x20 ADD SWAP1 DUP2 MSTORE PUSH1 0x20 ADD PUSH1 0x0 KECCAK256 PUSH1 0x0 DUP4 PUSH20 0xFFFFFFFFFFFFFFFFFFFFFFFFFFFFFFFFFFFFFFFF AND PUSH20 0xFFFFFFFFFFFFFFFFFFFFFFFFFFFFFFFFFFFFFFFF AND DUP2 MSTORE PUSH1 0x20 ADD SWAP1 DUP2 MSTORE PUSH1 0x20 ADD PUSH1 0x0 KECCAK256 PUSH1 0x0 PUSH2 0x100 EXP DUP2 SLOAD DUP2 PUSH1 0xFF MUL NOT AND SWAP1 DUP4 ISZERO ISZERO MUL OR SWAP1 SSTORE POP DUP1 PUSH20 0xFFFFFFFFFFFFFFFFFFFFFFFFFFFFFFFFFFFFFFFF AND DUP3 PUSH32 0x5A06360D65ACF95E98445DC834F205063424C636E65418D928CDFABC33A95399 PUSH1 0x40 MLOAD PUSH1 0x40 MLOAD DUP1 SWAP2 SUB SWAP1 LOG3 POP POP JUMP JUMPDEST PUSH1 0x0 DUP1 PUSH1 0x0 DUP5 DUP2 MSTORE PUSH1 0x20 ADD SWAP1 DUP2 MSTORE PUSH1 0x20 ADD PUSH1 0x0 KECCAK256 PUSH1 0x0 DUP4 PUSH20 0xFFFFFFFFFFFFFFFFFFFFFFFFFFFFFFFFFFFFFFFF AND PUSH20 0xFFFFFFFFFFFFFFFFFFFFFFFFFFFFFFFFFFFFFFFF AND DUP2 MSTORE PUSH1 0x20 ADD SWAP1 DUP2 MSTORE PUSH1 0x20 ADD PUSH1 0x0 KECCAK256 PUSH1 0x0 PUSH2 0x100 EXP DUP2 SLOAD DUP2 PUSH1 0xFF MUL NOT AND SWAP1 DUP4 ISZERO ISZERO MUL OR SWAP1 SSTORE POP DUP1 PUSH20 0xFFFFFFFFFFFFFFFFFFFFFFFFFFFFFFFFFFFFFFFF AND DUP3 PUSH32 0x76E6093C136CD7FAA5A6D92B2B633F3B4595ABD4A529B7A13917398355FEA694 PUSH1 0x40 MLOAD PUSH1 0x40 MLOAD DUP1 SWAP2 SUB SWAP1 LOG3 POP POP JUMP JUMPDEST PUSH1 0x0 DUP2 SWAP1 POP SWAP2 SWAP1 POP JUMP JUMPDEST PUSH2 0x496 DUP2 PUSH2 0x483 JUMP JUMPDEST DUP3 MSTORE POP POP JUMP JUMPDEST PUSH1 0x0 PUSH1 0x20 DUP3 ADD SWAP1 POP PUSH2 0x4B1 PUSH1 0x0 DUP4 ADD DUP5 PUSH2 0x48D JUMP JUMPDEST SWAP3 SWAP2 POP POP JUMP JUMPDEST PUSH1 0x0 DUP1 REVERT JUMPDEST PUSH2 0x4C5 DUP2 PUSH2 0x483 JUMP JUMPDEST DUP2 EQ PUSH2 0x4D0 JUMPI PUSH1 0x0 DUP1 REVERT JUMPDEST POP JUMP JUMPDEST PUSH1 0x0 DUP2 CALLDATALOAD SWAP1 POP PUSH2 0x4E2 DUP2 PUSH2 0x4BC JUMP JUMPDEST SWAP3 SWAP2 POP POP JUMP JUMPDEST PUSH1 0x0 PUSH20 0xFFFFFFFFFFFFFFFFFFFFFFFFFFFFFFFFFFFFFFFF DUP3 AND SWAP1 POP SWAP2 SWAP1 POP JUMP JUMPDEST PUSH1 0x0 PUSH2 0x513 DUP3 PUSH2 0x4E8 JUMP JUMPDEST SWAP1 POP SWAP2 SWAP1 POP JUMP JUMPDEST PUSH2 0x523 DUP2 PUSH2 0x508 JUMP JUMPDEST DUP2 EQ PUSH2 0x52E JUMPI PUSH1 0x0 DUP1 REVERT JUMPDEST POP JUMP JUMPDEST PUSH1 0x0 DUP2 CALLDATALOAD SWAP1 POP PUSH2 0x540 DUP2 PUSH2 0x51A JUMP JUMPDEST SWAP3 SWAP2 POP POP JUMP JUMPDEST PUSH1 0x0 DUP1 PUSH1 0x40 DUP4 DUP6 SUB SLT ISZERO PUSH2 0x55D JUMPI PUSH2 0x55C PUSH2 0x4B7 JUMP JUMPDEST JUMPDEST PUSH1 0x0 PUSH2 0x56B DUP6 DUP3 DUP7 ADD PUSH2 0x4D3 JUMP JUMPDEST SWAP3 POP POP PUSH1 0x20 PUSH2 0x57C DUP6 DUP3 DUP7 ADD PUSH2 0x531 JUMP JUMPDEST SWAP2 POP POP SWAP3 POP SWAP3 SWAP1 POP JUMP JUMPDEST PUSH1 0x0 DUP2 ISZERO ISZERO SWAP1 POP SWAP2 SWAP1 POP JUMP JUMPDEST PUSH2 0x59B DUP2 PUSH2 0x586 JUMP JUMPDEST DUP3 MSTORE POP POP JUMP JUMPDEST PUSH1 0x0 PUSH1 0x20 DUP3 ADD SWAP1 POP PUSH2 0x5B6 PUSH1 0x0 DUP4 ADD DUP5 PUSH2 0x592 JUMP JUMPDEST SWAP3 SWAP2 POP POP JUMP JUMPDEST PUSH1 0x0 DUP2 SWAP1 POP SWAP3 SWAP2 POP POP JUMP JUMPDEST PUSH32 0x41444D494E000000000000000000000000000000000000000000000000000000 PUSH1 0x0 DUP3 ADD MSTORE POP JUMP JUMPDEST PUSH1 0x0 PUSH2 0x5FD PUSH1 0x5 DUP4 PUSH2 0x5BC JUMP JUMPDEST SWAP2 POP PUSH2 0x608 DUP3 PUSH2 0x5C7 JUMP JUMPDEST PUSH1 0x5 DUP3 ADD SWAP1 POP SWAP2 SWAP1 POP JUMP JUMPDEST PUSH1 0x0 PUSH2 0x61E DUP3 PUSH2 0x5F0 JUMP JUMPDEST SWAP2 POP DUP2 SWAP1 POP SWAP2 SWAP1 POP JUMP JUMPDEST PUSH32 0x5553455200000000000000000000000000000000000000000000000000000000 PUSH1 0x0 DUP3 ADD MSTORE POP JUMP JUMPDEST PUSH1 0x0 PUSH2 0x65E PUSH1 0x4 DUP4 PUSH2 0x5BC JUMP JUMPDEST SWAP2 POP PUSH2 0x669 DUP3 PUSH2 0x628 JUMP JUMPDEST PUSH1 0x4 DUP3 ADD SWAP1 POP SWAP2 SWAP1 POP JUMP JUMPDEST PUSH1 0x0 PUSH2 0x67F DUP3 PUSH2 0x651 JUMP JUMPDEST SWAP2 POP DUP2 SWAP1 POP SWAP2 SWAP1 POP JUMP INVALID LOG2 PUSH5 0x6970667358 0x22 SLT KECCAK256 CREATE2 0xD SDIV 0xF BASEFEE OR RETURN GASPRICE CREATE2 0xAD 0x4E DUP9 0xBB MSTORE8 NUMBER PUSH9 0xC66B6EFA2D155371FF 0x24 PC 0x2D CREATE2 0xE1 0xE1 AND PUSH5 0x736F6C6343 STOP ADDMOD SLT STOP CALLER "
				},
				"gasEstimates": {
					"creation": {
						"codeDepositCost": "345400",
						"executionCost": "infinite",
						"totalCost": "infinite"
					},
					"external": {
						"ADMIN()": "612",
						"USER()": "656",
						"grantRole(bytes32,address)": "infinite",
						"revokeRole(bytes32,address)": "infinite",
						"roles(bytes32,address)": "3153"
					},
					"internal": {
						"_grantRole(bytes32,address)": "25996",
						"_revokeRole(bytes32,address)": "25996"
					}
				},
				"methodIdentifiers": {
					"ADMIN()": "2a0acc6a",
					"USER()": "81e167cf",
					"grantRole(bytes32,address)": "2f2ff15d",
					"revokeRole(bytes32,address)": "d547741f",
					"roles(bytes32,address)": "f8fc08b9"
				}
			},
			"storageLayout": {
				"storage": [
					{
						"astId": 23,
						"contract": "PET/AccessControl .sol:AccessControl",
						"label": "roles",
						"offset": 0,
						"slot": "0",
						"type": "t_mapping(t_bytes32,t_mapping(t_address,t_bool))"
					}
				],
				"types": {
					"t_address": {
						"encoding": "inplace",
						"label": "address",
						"numberOfBytes": "20"
					},
					"t_bool": {
						"encoding": "inplace",
						"label": "bool",
						"numberOfBytes": "1"
					},
					"t_bytes32": {
						"encoding": "inplace",
						"label": "bytes32",
						"numberOfBytes": "32"
					},
					"t_mapping(t_address,t_bool)": {
						"encoding": "mapping",
						"key": "t_address",
						"label": "mapping(address => bool)",
						"numberOfBytes": "32",
						"value": "t_bool"
					},
					"t_mapping(t_bytes32,t_mapping(t_address,t_bool))": {
						"encoding": "mapping",
						"key": "t_bytes32",
						"label": "mapping(bytes32 => mapping(address => bool))",
						"numberOfBytes": "32",
						"value": "t_mapping(t_address,t_bool)"
					}
				}
			},
			"userdoc": {
				"kind": "user",
				"methods": {},
				"version": 1
			}
		}
	}
}